:020000040800F2
:10000000A002002005010008090100080B010008FA
:100010000D0100080F010008110100080000000098
:1000200000000000000000000000000013010008B4
:100030001501000800000000170100081901000860
:100040001B0100081B0100081B0100081B01000820
:100050001B0100081B0100081B0100081B01000810
:100060001B0100081B0100081B0100081B01000800
:100070001B0100081B0100081B0100081B010008F0
:100080001B0100081B0100081B0100081B010008E0
:100090001B0100081B0100081B0100081B010008D0
:1000A0001B0100081B0100081B0100081B010008C0
:1000B0001B0100081B010008C70F00081B010008F6
:1000C0001B0100081B0100081B0100081B010008A0
:1000D0001B0100082B050008590700081B01000838
:1000E0001B0100081B0100081B010008DFF80CD0F1
:1000F00001F0B6FB0048004763010008A0020020A1
:1001000030BF000005480047FEE7FEE7FEE7FEE7D8
:10011000FEE7FEE7FEE7FEE7FEE7FEE7ED0000088C
:1001200010B5092000F097F900F0F6FB00F036FC5E
:10013000482000F025F84FF41651482000F030FA1E
:100140004FF4E131242000F096FA4FF416512420A8
:1001500000F02AFB48F69F4140F2E73000F012FF22
:1001600010BDFFF7DDFF05E0034A4FF07A51034869
:1001700000F020FEF8E7000000005C426666E63F03
:100180004FF0E021096921F004014FF0E0221161F4
:10019000C21700EB5272C2F3C702234B1A70194602
:1001A000097801EB4102C2EBC1114FF6FF7202EA7E
:1001B000C1011E4A1180704701461C4A12884A43F9
:1001C0004FF0E0235A6100229A6101221A6100BFB8
:1001D0004FF0E022106900F001021AB100F4803201
:1001E000002AF5D000224FF0E0231A619A6170478F
:1001F00001460D4A12784A434FF0E0235A6100222B
:100200009A6101221A6100BF4FF0E022106900F0EC
:1002100001021AB100F48032002AF5D000224FF01A
:10022000E0231A619A61704700000020020000205C
:10023000AA4A0A400243AA4B1A60704701460723A4
:1002400023EA01021202A64B1B1D18684FF6FF039A
:100250001840A44B18431043A14B1B1D1860704756
:100260002DE9F0478046894614461D462046E11791
:1002700004EB9171C1F3870AE11704EB91718910C6
:10028000A4EB8101CFB2042000EBC700C7B228461F
:10029000FFF7D4FFC5F1040008FA00F60F2028414B
:1002A00000EA0900064306F00F06202C09DA8E4802
:1002B00001680120A04001434FF0E020C0F8001188
:1002C0000BE08948001D0068A4F1200101228A404A
:1002D00010434FF0E021C1F80401844850F82A008F
:1002E00006FA07F10843814941F82A00BDE8F08782
:1002F00070B504460B46CE1701EB9676C6F3870021
:10030000CE1701EB9676B610A1EB8606B606350E33
:10031000774B9B6943F00103754EB3614FEAB633E7
:1003200053F820300F26AE40B343724E46F82030CB
:10033000334653F8203004FA05F61E436D4B43F85C
:1003400020606D4B1B6801268E4033436A4E33603C
:1003500002F0010343B1684B0C331B6801268E4049
:100360003343654E0C36336002F0020343B1624BF7
:1003700008331E6801238B401E435F4B08331E6009
:1003800070BD00B500205A490861C860142048615A
:1003900000208861C8610846006840F001000860DC
:1003A0000846406855490840514948600846006879
:1003B000534908404E4908600846006820F48020F0
:1003C00008600846406820F4FE004860002088600D
:1003D00000214FF00060FFF72BFF00BD10B5404833
:1003E0000830006840F004003D490831086040488A
:1003F000C06940F080503E49C8614248406840F4BE
:100400008070404948600846006840F00400086079
:100410000846006840F002000860FFF771FE10BD5A
:100420003048001D2E49091D0860704701464906E5
:100430002F4A926942F001022D4B9A612D4A083AE7
:10044000526822F0E0622B4B083B5A601A46526811
:100450000A435A60704730B504460025FFF791FF04
:100460002348006840F480302149086000BF2048DC
:100470000068400C0028FAD04FF480601C494860A6
:10048000A01EC4B20846406840EA8440486008465E
:10049000406840F4803048601B48006840F03200FB
:1004A000194908601248006840F0807010490860DF
:1004B00000BF0F480068400E0028FAD00C48406882
:1004C00040F002000A49486005E009484068C0F36E
:1004D000870505F00305022DF7D130BD80FFFF1F12
:1004E00008ED00E00000FA0500E100E000E400E0B3
:1004F0000010024008000140000401400000FFF825
:10050000FFFFF6FE0070004000200240014600BFE1
:10051000704700BFF44A128802F04002002AF9D066
:10052000C2B2F14B1B1D1A807047EF49098801F0D8
:10053000200111B3EC49091D0988C8B2EB490978BB
:1005400001F08001C9B9E949097801F0400161B1C0
:100550000A2803D00021E54A117020E0E349097818
:1005600041F08001E14A117019E00D2806D1DF4900
:10057000097841F04001DD4A117010E0DB4909784B
:1005800001F03F01DA4A5054D8490978491CD74A4A
:100590001170114609783F2901DD00211170704763
:1005A0002DE9F05F05460E46300100F087FF8146D9
:1005B000D04905FB01F000F081FF8246494600F07A
:1005C000B7FD0746384600F08FFF84B2204600F0A2
:1005D00075FF8346394600F076FD82464FF0834131
:1005E00000F074FD814600F07FFF80464FF6FF70FB
:1005F00000EA041404EB080084B2BF48806940F0AC
:100600000400BD4988610846806940F480408861E3
:10061000BA48006820F47F60B8490860084600685E
:1006200040F40B600860B448C06840F48040B249B0
:10063000C8600846C06820F48040C860AA480830F6
:100640000480001D008842F20C010843A6490C31C9
:1006500008800846008840F48070088008460088BA
:1006600040F0200008800223252203210846FFF7DE
:10067000F7FDBDE8F09F2DE9F05F05460E4630011D
:1006800000F01CFF81469B4905FB01F000F016FFBE
:100690008246494600F04CFD0746384600F024FFEC
:1006A00084B2204600F00AFF8346394600F00BFD75
:1006B00082464FF0834100F009FD814600F014FFAF
:1006C00080464FF6FF7000EA041404EB080084B281
:1006D0008948806940F00400874988610846C069FC
:1006E00040F40030C8618548001F006820F47F4056
:1006F0008249091F08600846006840F40B40086002
:100700007D48006940F400307B4908610846006973
:1007100020F4003008617A480480001D008842F20D
:100720000C0108437649091D08800846008840F4FA
:10073000807008800846008840F020000880084645
:10074000008840F004000880022326220321084686
:10075000FFF786FDBDE8F09F69480838008800F083
:100760002000F8B16648001F00886649664A127882
:1007700088546548007830B9084663490978405C78
:10078000552800D0704760480078401C5E490870CA
:10079000084600780B2805D101205C49087000202C
:1007A0005949087000BFEDE72DE9F05F05460E4698
:1007B000300100F083FE81464E4905FB01F000F058
:1007C0007DFE8246494600F0B3FC0746384600F0FD
:1007D0008BFE84B2204600F071FE8346394600F05D
:1007E00072FC82464FF0834100F070FC814600F0BD
:1007F0007BFE80464FF6FF7000EA041404EB08000D
:1008000084B23D48806940F008003B498861084651
:10081000C06940F48020C8613D48006820F47F40F2
:100820003B4908600846006840F40B4008603248C5
:10083000006940F48020304908610846006920F4CE
:100840008020086133480480001D008842F20C01BA
:1008500008433049091D08800846008840F480702C
:1008600008800846008840F020000880084600887C
:1008700040F0040008800223272203211846FFF7D6
:10088000EFFCBDE8F09F00BF22480838008800F068
:1008900040000028F8D068201E49091F088000BFCA
:1008A0001C480838008800F040000028F8D0652077
:1008B0001849091F088000BF16480838008800F052
:1008C00040000028F8D06C201249091F088000BFA2
:1008D00010480838008800F040000028F8D0702048
:1008E0000C49091F088070470038014008000020AB
:1008F0002000002040420F00001002400408014088
:1009000008440040600000200A0000200900002088
:10091000040C0140084800401C48806940F0040075
:100920001A4988611A48006820F00F0018490860C9
:100930000846006840F00300086015480830006869
:1009400040F480701249083108601148001F0068A7
:1009500020F07F400E49091F08600846006840F0FB
:100960004C5008600A480830006840F08000084990
:10097000083108600846006840F040000860002028
:10098000044908600449C1F898017047001002400A
:1009900004080140A0012142000021423A48806938
:1009A00040F00400384988613848006820F00F00A2
:1009B000364908600846006840F008000860081DD5
:1009C0000068334908403149091D0860084600683D
:1009D000304908432D49091D08602C480C30006837
:1009E00040F4005029490C3108600846006840F482
:1009F00000400860704710B50220FFF717FD264839
:100A0000007858B32548006840B124480830006891
:100A100020B122483438006801281FD10A20FFF78E
:100A2000CBFB00201C4908701C48006820B901203D
:100A3000FFF7FCFC012010BD18480830006820B901
:100A40000120FFF7F3FC0220F5E714483438006872
:100A5000012813D1FFF7EAFC0320ECE70F480068F8
:100A600001280BD10D4808300068012806D10B4839
:100A70003438006810B90120074908700120FFF7D9
:100A8000D5FC0020D7E7000000100240000801401C
:100A9000FFFF0F0F000080800B0000203401214277
:100AA0002DE9F0478CB0002400250020AC490860F7
:100AB000B8E0AC48007800287DD000240020A94987
:100AC0000870A94800785528F2D1052D18D1A448FE
:100AD000006800F01DFD81460022A44B00F07FFC61
:100AE000064600F03DFD9E4908600846006800F09B
:100AF0000FFD064632460B469DA000F0D3FE92E065
:100B00009948407851287DD16D1C97498978964A3B
:100B1000D27841EA022108B200F0D5FC0646002254
:100B2000964B00F05CFC81460022954B00F0E5FB03
:100B3000944A03C28C4909798B4A527941EA0221CD
:100B400008B200F0C0FC064600228C4B00F047FCC7
:100B5000814600228A4B00F0D0FB8A4AC2E902019A
:100B600081498979804AD27941EA022108B200F0AC
:100B7000AAFC81460022814B00F031FC064600228F
:100B80007F4B00F0BAFB7F4AC2E904011046D0E96E
:100B900004633246D0E90491484600F0AEFBCDE94B
:100BA00006017848D0E902633246D0E9029148460E
:100BB00000F0A3FB00E02BE0CDE902017148D0E991
:100BC00000633246D0E90091484600F096FBCDE93B
:100BD0000001DDE9022300F0E9FACDE90401DDE9D5
:100BE000062300F0E3FACDE9080101F0CAFACDE9E5
:100BF0000A0100F0B5FC804641465948006800F003
:100C00000DFA00E002E05649086000E000BF09E08C
:100C1000641CB4F57A7F05D15BA000F043FE0CB0F4
:100C2000BDE8F08745E700BF00BFF8E72DE9F05FBA
:100C30000024A1460020584908608CE0494800780B
:100C400000287FD0002400204649087046480078DC
:100C50005528F2D1B9F1050F18D14F48006800F0BE
:100C600057FC07460022414B00F0B9FB054600F057
:100C700077FC494908600846006800F049FC0546D1
:100C80002A460B4645A000F00DFE65E03648407848
:100C9000532855D109F1010933498978324AD2786C
:100CA00041EA022108B200F00EFC07460022334B55
:100CB00000F095FB054600223C4B00F01EFB3C4A31
:100CC00003C229490979284A527941EA022108B226
:100CD00000F0F9FB07460022284B00F080FB054698
:100CE0000022324B00F009FB314AC2E902011E49E1
:100CF00089791D4AD27941EA022108B200F0E3FB6A
:100D0000074600221D4B00F06AFB05460022274BD8
:100D100000F0F3FA264AC2E904011F48006800F017
:100D2000F7FB05462248D0E900733A46284600F012
:100D30003DFA824600F014FC1749086001E001E02A
:100D400000BF08E0641CB4F57A7F04D10EA000F067
:100D5000A9FDBDE8F09F71E700BF00BFF9E7000003
:100D60000C0000200900002060000020000014405A
:100D700053564D3A25372E3266200A000000E040D7
:100D800000003040700000206D7075363035302026
:100D90006572726F7221000010000020414E474CB6
:100DA000453A25372E3266200A0000000080664052
:100DB000880000202DE9F74F86B08946924601262B
:100DC00000205D4908605D490870FFF769FEFFF784
:100DD0002DFF5B4800680490069800F099FBCDE970
:100DE00002015848006800F093FB074600221346B2
:100DF00000F07DFACDE90001DDE9022300F09CFB63
:100E000071D24FF47A70FFF7D7F900251DE0FFF794
:100E100047FE484600F07CFBCDE9020149480068E6
:100E200000F076FB07460022474B00F060FA21F005
:100E30000041CDE90001DDE9022300F07DFB00D295
:100E400000266420FFF7B8F96D1C0A2D01DA012E87
:100E5000DDD0012E69D1FFF7E9FE3948D0F800B0A6
:100E6000504600F055FB074688465846049900F066
:100E700027F9019000F04CFB21F000413A4643462F
:100E8000CDE9020100F058FB4CD23048008840F018
:100E900001002E49088000202D49086001202649C4
:100EA0000839086015E0FFF7A6FD04460A20FFF7A1
:100EB00083F9012C0DD1002400201F490839086056
:100EC0002248008820F001002049088009B0BDE8D0
:100ED000F08F1F4800681E28E5DB1D4800681E28AB
:100EE00023D1002411E025E01AA000F0DBFCFFF77D
:100EF000CAFC012010490839086010490870FFF742
:100F00007AFD04460A20FFF757F9002CECD00020A8
:100F10000949083908600D48008820F001000B4994
:100F2000088002E00EA000F0BDFC1EB910A000F089
:100F3000B9FC012600BFC9E7A0012142140000202E
:100F4000100000200C0000200000F03F00080040CE
:100F500018000020C8B7C8CFB5F8B5B90A0000001E
:100F6000B2BBCAC7B5F8B5B9A3A1A3A10A000000D6
:100F7000BDF8D2BBB2BDBCECB2E2B2BBCAC7B5F8D9
:100F8000B5B90A0070B505460C461E48C06940F068
:100F900004001C49C8611C480580001F04801A48D1
:100FA0002038008840F001001749203908800846A1
:100FB000008840F04000088002231E220321012007
:100FC000FFF74EF970BD10481C38008800F0010092
:100FD00070B10E480068401C0C4908600C4800784D
:100FE000012805D10B480068C0430B49C1F8A00196
:100FF00005481C38008820F0010003491C3908808E
:1010000070470000001002402C080040180000202B
:1010100014000020A001214200002142F0B480EA27
:101020000102D40F4200B2EB410F02D20246084641
:1010300011464A0042D0C30DDDB2C1F3C752AD1A0A
:10104000202D35DAC1F3160141F4000204B15242F9
:10105000C5F1200602FA06F12A411044B3EBD05F35
:1010600023D0C4B1012DA0EBC35009DCF0BC4FF07C
:10107000004202EAC352DBB200F5000000F0FDBA04
:10108000400000F1807000EBC350A0F1807040EA96
:10109000D170490009E0490841EAC071A0EBC35092
:1010A00000F50000400800EBC350F0BC00F0DCBAD3
:1010B0006142012202EB4101001BF6E7F0BC7047E0
:1010C00081F00041AAE780F00040A7E780EA010232
:1010D00010B502F00043400022D04A001FD0010E9C
:1010E00001EB1261C0F35600C2F3560240F4000057
:1010F00042F40002A0FB022000047F39140400D057
:10110000401C50EA124001D44000491EC2B20C06F5
:1011100004EBD010401C4008802A02D003E00020DD
:1011200010BD20F00100002900DA0020184310BD96
:1011300030B480EA010202F0004530F0004221F0B4
:10114000004013D090B1C30DD40DC2F31601C0F30B
:101150001600E41A41F4000140F400027D3491428B
:1011600001D3641C00E04900002C02DA30BC0020EE
:1011700070474FF400000023914201D3891A0343C2
:1011800040084FEA4101F7D151B1914202D14FF0ED
:10119000004105E002D24FF0010101E06FF00101D2
:1011A00003EBC450284430BC00F05EBA2DE9FE4F7A
:1011B000804681EA0300C00F0C46009021F00041F8
:1011C00023F00045B8EB0200A94105D24046214674
:1011D00090461C460B46024623F00040104347D081
:1011E000270DC7F30A00C3F30A510290401A019079
:1011F00040286BDAC3F3130040F4801B009892463A
:1012000020B10023D2EB030A63EB0B0B0198594684
:10121000C0F14002504600F006FA06460D46504620
:101220005946019A00F00EFA10EB080061410024C3
:1012300087EA115284EAE7731A4340D0009A62B3F6
:10124000019A012A4FEA075215DC001B61EB0201EB
:101250004FF0004202EA0752CDE90042001C41F57E
:10126000801132462B4600F043FA03B0BDE8F08F00
:1012700040462146F9E7001B61EB0201001C41F5E5
:10128000801300185B412018A2F5001747EB0301FB
:1012900040EAD570B6196D4111E06D084FEA360687
:1012A00045EAC0754FEA0752001B61EB0201001CC2
:1012B00041F5801149084FEA30000019514132468A
:1012C0002B4603B0BDE8F04F00F005BA00980122AC
:1012D00040000023D0EB020263EBE073009821464C
:1012E0004FEAE074B8EB000061EB0401E9E783F03A
:1012F00000435BE781F0004158E72DE9FE4F81EAAA
:10130000030404F0004421F0004100944FF0000B6E
:1013100023F0004350EA01045ED052EA03045BD09C
:10132000C3F30A54C1F30A552C44A4F2F3340194D4
:10133000A0FB0254C1F3130141F48011C3F3130362
:1013400043F4801301FB024400FB034E840A970A16
:1013500044EA815447EA8357A4FB076802958D0A43
:1013600005FB07854FEA932C04FB0C542705029DCF
:101370004FEA065847EA1637B5EB08056EEB070C3F
:10138000870E920E47EA811742EA8312A7FB0201F9
:10139000B6EB0B0164EB00042B0D43EA0C335E1833
:1013A00044EB1C50DA465146E7FB0201C5F3130437
:1013B0004FEA0B3343EA14534FEA0432019C43EAE9
:1013C0000603A4F10C040294009CCDE900B400F0E3
:1013D0008FF903B0BDE8F08F00200146F9E72DE951
:1013E000F04D81EA030404F0004B21F0004514465F
:1013F0004FF0000A23F0004150EA050220D054EAE1
:1014000001021DD0C5F30A570246C5F31303C1F309
:101410001300C1F30A5640F4801543F48013A7EB80
:101420000608101BD64608F2FD3873EB050002D300
:1014300008F1010801E092185B41B8F1000F03DAEE
:1014400000200146BDE8F08D00204FF480110646D3
:1014500084460EE0171B73EB050705D3121B63EBE5
:10146000050306434CEA010C49084FEA3000921884
:101470005B4150EA0107EDD152EA030012D082EA43
:10148000040083EA0501084305D0101BAB4106D2D6
:101490000122002306E000224FF0004302E06FF03B
:1014A000010253101AEB06004CEB085110EB0A0036
:1014B00041EB0B01BDE8F04D00F00DB99623002281
:1014C000114600F0DAB80EB5C10F80EAE0700844AA
:1014D000CA07002140F233438DE80E000A460B464E
:1014E00000F006F903B000BD20F00040C10DC0F3CC
:1014F000160040F400007F2901DA00207047962989
:1015000003DCC1F19601C8407047963988407047A6
:1015100000F0004230F000400AD0C10D01F56071CA
:10152000C0F3160042EA0151C20840071143704758
:10153000002001467047000030B5002904DB4FF061
:101540000044404264EB0101002B04DB4FF00044F7
:10155000524264EB0303994208BF904230BD000041
:1015600001F0004330B421F0004150EA010206D0FE
:101570000A0DA2F56072C1F31301002A02DC30BC2F
:1015800000207047440F44EAC104C100E01830BC99
:1015900000EBC25000F068B830B50B4601460020A1
:1015A0002022012409E021FA02F59D4205D303FA25
:1015B00002F5491B04FA02F52844151EA2F10102A6
:1015C000F1DC30BD2DE9F05F0546002092469B46D8
:1015D00088460646814640241BE028464146474649
:1015E000224600F04FF953465A46C01A914110D393
:1015F00011461846224600F016F82D1A67EB01082E
:101600004F4622460120002100F00DF817EB00099B
:101610004E41201EA4F10104DFDC484631462A4633
:101620004346BDE8F09F202A04DB203A00FA02F18D
:10163000002070479140C2F1200320FA03F31943C0
:1016400090407047202A06DBCB17203A41FA02F07F
:1016500043EAE07306E041FA02F3D040C2F120020F
:1016600091400843194670470029A8BF7047401CA5
:10167000490008BF20F00100704710B4B0FA80FCA8
:1016800000FA0CF050EA010404BF10BC704749B1E5
:10169000CCF1200421FA04F411FA0CF118BF012155
:1016A00021430843A3EB0C01CB1D4FEA00614FEA35
:1016B000102042BF002010BC704700EBC350104404
:1016C0000029A4BF10BC7047401C490008BF20F08F
:1016D000010010BC704710B5002B08DA401C41F126
:1016E000000192185B411A4301D120F0010010BDA6
:1016F0002DE9F04D92469B4611B1B1FA81F202E01C
:10170000B0FA80F220329046FFF78DFF04460F4674
:1017100040EA0A0041EA0B0153465A46084313D0F7
:10172000114653EA010019D0C8F14002504600F0BA
:10173000A9F805460E46504659464246FFF773FF44
:10174000084305D0012004E020463946BDE8F08D6D
:101750000020054346EAE0762C4337430A986305A8
:10176000E40AA0EB08000022FD0A44EA47540A30CC
:1017700002D500200146E9E7010510196941DDE9BC
:10178000084500196941BDE8F04DA4E72DE9F04D89
:1017900000231A461B1A8A4103DB00200146BDE8DC
:1017A000F08DC1F30A52C1F3130141F480154FF0DB
:1017B000000BD10702D100186D41521E00270446CC
:1017C00040F2FF11384601EB620A3E46804602466F
:1017D00000204FF4801100F055F8C2197141BB1878
:1017E00046EB0100B4EB030C75EB000C04D3E41AD8
:1017F00065EB000517460E46241908F101006D41FE
:1018000080463428E3DDF91946EB0600091BA841A0
:1018100003D24FF0FF32134601E0002213461BEBC8
:10182000070046EB0A51BDE8F04DFFF754BFC1F386
:101830000A52C1F3130140F2FF3341F480119A427E
:1018400002DA00200146704740F233439A42A2F286
:10185000334202DC524200F015B8FFF7E4BE00004C
:10186000064C074D06E0E06840F0010394E80700ED
:1018700098471034AC42F6D3FEF73CFCD021000868
:10188000F0210008202A04DB203A21FA02F000218E
:10189000704721FA02F3D040C2F120029140084380
:1018A000194670470FB4054B10B503A9044A0298B6
:1018B00000F0D0F810BC5DF814FB00001305000820
:1018C0000400002002E008C8121F08C1002AFAD153
:1018D00070477047002001E001C1121F002AFBD1B0
:1018E0007047000001490860704700001C0000209C
:1018F0002DE9FF5FDDE90220010DDDF838B002437C
:1019000018D044F61050A1F2FF3141430D140F9846
:10191000012820D0A5EB0B00401C5FEA000A4FF025
:101920000004474EDFF81C91A046504616D5CAF178
:10193000000728E00F98012443A2012808D00021C5
:1019400000980F9BC0E90021C0E90243BDE8FF9F5A
:101950006FEA0B01F4E7CBF10000DEE7074612E087
:10196000F80707D02246334640464946FFF7C5FCF4
:10197000804689462246334610461946FFF7BDFC8D
:1019800004460E467F10002FEAD1DDE90201BAF1CC
:10199000000F42464B4602DAFFF7AFFC01E0FFF7CB
:1019A0001EFD04460E460022284BFFF7C5FD03D856
:1019B0004FF0FF30014607E00022254B204631461C
:1019C000FFF7F4FBFFF733FF102409E0002C0ADBDC
:1019D0000A220023FFF7F6FD019B30321A55641EE0
:1019E00050EA0102F2D1641C019AC4F111031444BB
:1019F0000F9A012A03D0012208430DD10AE00843BF
:101A000004D000204FF0110B0F9080E7A3EB0B05E3
:101A10006D1E0DE05B4504DD4FF0000205F1010590
:101A200004E003DA4FF00002A5F10105002AECD032
:101A300000980F99C0E90231C0E9004586E700002F
:101A4000000024400000F03F300000000000F043A0
:101A50000000E03F2DE9FF4F95B09B4689460646C2
:101A600000250FE2252877D100242746F84A0121D6
:101A7000059400E0044316F8013F203B01FA03F00F
:101A80001042F7D130782A2811D06FF02F03307828
:101A9000A0F13002092A16D8059A44F0020402EB9C
:101AA000820203EB42021044761C0590EFE759F8DE
:101AB000042B0592002A03DA504244F400540590A6
:101AC00044F00204761C30782E2816D116F8010F47
:101AD00044F004042A280DD06FF02F023078A0F1D2
:101AE0003003092B09D807EB870302EB4303C71820
:101AF000761CF3E759F8047B761C30786C280FD0FD
:101B000006DC4C2817D068280DD06A2814D104E0D0
:101B1000742810D07A280FD10DE044F400140AE0A4
:101B200044F4801401E044F440147278824202D1FB
:101B300004F58014761C761C307866280BD013DCF4
:101B4000582877D009DC002875D04528F6D04628DB
:101B5000F4D047281AD19DE118E0632835D06428D5
:101B600079D0652812D195E1702873D008DC6728F8
:101B7000F1D069286FD06E280DD06F2806D1B5E05E
:101B800073282CD0752875D0782874D05A461799A8
:101B900090476D1C75E1C4F30250022809D0032858
:101BA0000DD0D9F8001004280DD00D6009F10409FA
:101BB00067E1D9F80010EA17C1E90052F6E7D9F851
:101BC00000100D80F2E70D70F0E719F8041B8DF896
:101BD000001000208DF80100EA46012003E059F8CA
:101BE00004AB4FF0FF3061074FF0000102D40DE06D
:101BF00008F101018846B9420FDA8045F8DB1AF88E
:101C000008100029F4D108E008F10101884681425A
:101C1000FADB1AF808100029F6D105985B46A0EB0C
:101C2000080721463846179A00F094FA284400EB3A
:101C3000080507E04DE029E10DE01AF8010B5A46CE
:101C400017999047B8F10108F7D25B46214638460C
:101C5000179A13E142E00A220092C4F302524FF0B5
:101C6000000A022A08D059F804CB032A4FEAEC7183
:101C70000AD00DE029E02AE009F1070121F007026E
:101C8000F2E802C1914609E00FFA8CFC4FEAEC71D0
:101C9000042A03D14FFA8CFC4FEAEC71002907DAD1
:101CA0000A460021DCF1000C61EB02012D2202E06A
:101CB000220504D52B228DF80420012203E0E2073F
:101CC00001D02022F7E7904659E00A2102E01022D5
:101CD0000DE010214FF0000A00910BE010224FF0B0
:101CE000000A44F004040827009203E008224FF0A1
:101CF000000A0092C4F30252022A05D059F804CB1C
:101D00000021032A08D009E009F1070121F00702A8
:101D1000F2E802C1914605E01FFA8CFC042A01D1C9
:101D20000CF0FF0C4FF00008220728D5702806D0D1
:101D3000009B83F0100353EA0A0305D00EE0402213
:101D40008DF80420012208E05CEA010206D030226E
:101D50008DF804208DF8050002229046009B83F048
:101D6000080353EA0A030AD15CEA010201D16207BF
:101D700005D530228DF804204FF001087F1E582829
:101D800004D034A003900EA802900DE036A0F9E72D
:101D900053466046009AFFF715FC84460398825C20
:101DA0000298401E029002705CEA0100F0D1029895
:101DB00006A9081A00F1200A600702D524F480342D
:101DC00000E00127574502DDA7EB0A0000E00020F4
:101DD00000EB0A01009005984144401A0590E00389
:101DE00006D45B462146179A059800F0B3F90544DE
:101DF000002706E001A85A46C05D179990476D1C60
:101E00007F1C4745F6DBE0030CD55B462146179A5D
:101E1000059800F09FF9054404E030205A461799D0
:101E200090476D1C0099481E00900029F5DC08E0E1
:101E3000029802995A460078491C029117999047D6
:101E40006D1CBAF10001AAF1010AF1DC65E10000A4
:101E50000928010030313233343536373839616280
:101E60006364656600000000303132333435363744
:101E700038394142434445460000000000F058F91B
:101E80000544761C307800287FF4ECAD19B0284664
:101E9000BDE8F08F620700D4062709F1070222F09F
:101EA000070CFCE80223E14603F000485FEA080C57
:101EB00002D00FF2702C0DE05FEA045C02D50FF245
:101EC000682C07E05FEAC47C02D00FF2602C01E0CE
:101ED000AFF2700C4FF0FF3823F00043CDF850C044
:101EE00065280CD006DC452809D046281DD0472897
:101EF0003DD13DE0662818D067287ED138E000212A
:101F0000112F01DB112000E0781CCDE9000106A9AA
:101F10000EA8FFF7EDFCDDE90F010E9A03910021F9
:101F2000009207F1010A04914DE04FF00040009744
:101F3000CDE9011006A90EA8FFF7DAFCDDE90F02D2
:101F400003920E9B11990022DDF80CA000930492DD
:101F500011B9791C00EB010AB7EB0A0004D4C0F1F7
:101F6000FF3007F1010A0490AAEB0700019044E05A
:101F7000012F00DA01270021112F01DD112000E0DF
:101F80003846CDE9000106A90EA8FFF7B1FCDDE94E
:101F90000F010E9A0391002104910092BA46210785
:101FA0000CD40399514500DA8A46BAF1010F05DDD8
:101FB000009AAAF10101515C302908D0B84202DA36
:101FC00010F1040F06DA0121CDE9011015E0AAF1A4
:101FD0000101E9E7002805DC049901440491AAEB1A
:101FE000000102E0411C514500DD8A460499401A77
:101FF000401C01904FF000400290200704D401984B
:10200000504501DBCDF8048000208DF84F00029888
:102010000DF14F07B0F1004F25D02B200E90029804
:102020004FF0020800280CDA404202902D200E905A
:1020300007E00A210298FFF7AFFA3031029007F863
:10204000011DB8F10001A8F10108F2DC0298002896
:10205000EFD1791E0E980870307800F0200040F023
:10206000450007F8020D12A8C01B00F107081498DC
:10207000007800B1012000EB0A01019801EBE0714A
:1020800005984144401A401E0590E00306D45B4683
:102090002146179A059800F05DF8054414980078D9
:1020A00018B15A46179990476D1CE00324D55B463A
:1020B0002146179A059800F04DF805441CE0049855
:1020C000002807DBDDE90301884203DD0098405C5E
:1020D000179901E0179930205A469047049805F166
:1020E0000105401C04900198401E019004D12E204F
:1020F0005A46179990476D1CBAF10001AAF1010ADE
:10210000DDDC05E017F8010B5A46179990476D1C66
:10211000B8F10001A8F10108F4DC5B462146179AEA
:102120000598ABE62D0000002B0000002000000009
:102130002DE9F041044600251E461746880404D4C4
:1021400005E039462020B0476D1C641EF9D52846AD
:10215000BDE8F0812DE9F041044600251E46904679
:10216000C80301D5302700E02027880404D505E006
:1021700041463846B0476D1C641EF9D52846BDE877
:10218000F0812DE9F04106460F46FFF7FFFA040003
:102190000D4618BF0120284320F00040C0F17F60A9
:1021A00000F1E040C00F0ED0301C18BF01203843B2
:1021B00020F00040C0F17F6000F1E040C00F04BF9C
:1021C0000120FFF78FFB20462946BDE8F081000083
:1021D000F02100080000002020000000C4180008C2
:1021E000102200082000002080020000D4180008FF
:1021F00000000000000000000000000100000000DE
:1022000000000000000000000000000000000000CE
:04000005080000ED02
:00000001FF
